{
  "_format": "hh-sol-artifact-1",
  "contractName": "Crowdfunding",
  "sourceName": "contracts/Crowdfunding.sol",
  "abi": [
    {
      "inputs": [
        {
          "internalType": "address",
          "name": "_owner",
          "type": "address"
        },
        {
          "internalType": "string",
          "name": "_name",
          "type": "string"
        },
        {
          "internalType": "string",
          "name": "_description",
          "type": "string"
        },
        {
          "internalType": "uint256",
          "name": "_goal",
          "type": "uint256"
        },
        {
          "internalType": "uint256",
          "name": "_duration",
          "type": "uint256"
        }
      ],
      "stateMutability": "nonpayable",
      "type": "constructor"
    },
    {
      "inputs": [
        {
          "internalType": "string",
          "name": "_name",
          "type": "string"
        },
        {
          "internalType": "uint256",
          "name": "_amount",
          "type": "uint256"
        }
      ],
      "name": "addTier",
      "outputs": [],
      "stateMutability": "nonpayable",
      "type": "function"
    },
    {
      "inputs": [
        {
          "internalType": "address",
          "name": "",
          "type": "address"
        }
      ],
      "name": "backers",
      "outputs": [
        {
          "internalType": "uint256",
          "name": "totalContribution",
          "type": "uint256"
        }
      ],
      "stateMutability": "view",
      "type": "function"
    },
    {
      "inputs": [],
      "name": "deadline",
      "outputs": [
        {
          "internalType": "uint256",
          "name": "",
          "type": "uint256"
        }
      ],
      "stateMutability": "view",
      "type": "function"
    },
    {
      "inputs": [],
      "name": "description",
      "outputs": [
        {
          "internalType": "string",
          "name": "",
          "type": "string"
        }
      ],
      "stateMutability": "view",
      "type": "function"
    },
    {
      "inputs": [
        {
          "internalType": "uint256",
          "name": "_days",
          "type": "uint256"
        }
      ],
      "name": "extendDeadline",
      "outputs": [],
      "stateMutability": "nonpayable",
      "type": "function"
    },
    {
      "inputs": [
        {
          "internalType": "uint256",
          "name": "_tierIndex",
          "type": "uint256"
        }
      ],
      "name": "fund",
      "outputs": [],
      "stateMutability": "payable",
      "type": "function"
    },
    {
      "inputs": [],
      "name": "getCampaignStatus",
      "outputs": [
        {
          "internalType": "enum Crowdfunding.CampaignState",
          "name": "",
          "type": "uint8"
        }
      ],
      "stateMutability": "view",
      "type": "function"
    },
    {
      "inputs": [],
      "name": "getContractBalance",
      "outputs": [
        {
          "internalType": "uint256",
          "name": "",
          "type": "uint256"
        }
      ],
      "stateMutability": "view",
      "type": "function"
    },
    {
      "inputs": [],
      "name": "getTier",
      "outputs": [
        {
          "components": [
            {
              "internalType": "string",
              "name": "name",
              "type": "string"
            },
            {
              "internalType": "uint256",
              "name": "amount",
              "type": "uint256"
            },
            {
              "internalType": "uint256",
              "name": "backers",
              "type": "uint256"
            }
          ],
          "internalType": "struct Crowdfunding.Tier[]",
          "name": "",
          "type": "tuple[]"
        }
      ],
      "stateMutability": "view",
      "type": "function"
    },
    {
      "inputs": [],
      "name": "goal",
      "outputs": [
        {
          "internalType": "uint256",
          "name": "",
          "type": "uint256"
        }
      ],
      "stateMutability": "view",
      "type": "function"
    },
    {
      "inputs": [
        {
          "internalType": "address",
          "name": "_backer",
          "type": "address"
        },
        {
          "internalType": "uint256",
          "name": "_tierIndex",
          "type": "uint256"
        }
      ],
      "name": "hasFundedTier",
      "outputs": [
        {
          "internalType": "bool",
          "name": "",
          "type": "bool"
        }
      ],
      "stateMutability": "view",
      "type": "function"
    },
    {
      "inputs": [],
      "name": "name",
      "outputs": [
        {
          "internalType": "string",
          "name": "",
          "type": "string"
        }
      ],
      "stateMutability": "view",
      "type": "function"
    },
    {
      "inputs": [],
      "name": "owner",
      "outputs": [
        {
          "internalType": "address",
          "name": "",
          "type": "address"
        }
      ],
      "stateMutability": "view",
      "type": "function"
    },
    {
      "inputs": [],
      "name": "paused",
      "outputs": [
        {
          "internalType": "bool",
          "name": "",
          "type": "bool"
        }
      ],
      "stateMutability": "view",
      "type": "function"
    },
    {
      "inputs": [],
      "name": "refund",
      "outputs": [],
      "stateMutability": "nonpayable",
      "type": "function"
    },
    {
      "inputs": [
        {
          "internalType": "uint256",
          "name": "_index",
          "type": "uint256"
        }
      ],
      "name": "removeTier",
      "outputs": [],
      "stateMutability": "nonpayable",
      "type": "function"
    },
    {
      "inputs": [],
      "name": "state",
      "outputs": [
        {
          "internalType": "enum Crowdfunding.CampaignState",
          "name": "",
          "type": "uint8"
        }
      ],
      "stateMutability": "view",
      "type": "function"
    },
    {
      "inputs": [
        {
          "internalType": "uint256",
          "name": "",
          "type": "uint256"
        }
      ],
      "name": "tiers",
      "outputs": [
        {
          "internalType": "string",
          "name": "name",
          "type": "string"
        },
        {
          "internalType": "uint256",
          "name": "amount",
          "type": "uint256"
        },
        {
          "internalType": "uint256",
          "name": "backers",
          "type": "uint256"
        }
      ],
      "stateMutability": "view",
      "type": "function"
    },
    {
      "inputs": [],
      "name": "togglePause",
      "outputs": [],
      "stateMutability": "nonpayable",
      "type": "function"
    },
    {
      "inputs": [],
      "name": "withdraw",
      "outputs": [],
      "stateMutability": "nonpayable",
      "type": "function"
    }
  ],
  "bytecode": "0x608060405234801561001057600080fd5b50604051612d82380380612d82833981810160405281019061003291906102f8565b836000908161004191906105c2565b50826001908161005191906105c2565b5081600281905550620151808161006891906106c3565b426100739190610705565b60038190555084600460006101000a81548173ffffffffffffffffffffffffffffffffffffffff021916908373ffffffffffffffffffffffffffffffffffffffff1602179055506000600460156101000a81548160ff021916908360028111156100e0576100df610739565b5b02179055505050505050610768565b6000604051905090565b600080fd5b600080fd5b600073ffffffffffffffffffffffffffffffffffffffff82169050919050565b600061012e82610103565b9050919050565b61013e81610123565b811461014957600080fd5b50565b60008151905061015b81610135565b92915050565b600080fd5b600080fd5b6000601f19601f8301169050919050565b7f4e487b7100000000000000000000000000000000000000000000000000000000600052604160045260246000fd5b6101b48261016b565b810181811067ffffffffffffffff821117156101d3576101d261017c565b5b80604052505050565b60006101e66100ef565b90506101f282826101ab565b919050565b600067ffffffffffffffff8211156102125761021161017c565b5b61021b8261016b565b9050602081019050919050565b60005b8381101561024657808201518184015260208101905061022b565b60008484015250505050565b6000610265610260846101f7565b6101dc565b90508281526020810184848401111561028157610280610166565b5b61028c848285610228565b509392505050565b600082601f8301126102a9576102a8610161565b5b81516102b9848260208601610252565b91505092915050565b6000819050919050565b6102d5816102c2565b81146102e057600080fd5b50565b6000815190506102f2816102cc565b92915050565b600080600080600060a08688031215610314576103136100f9565b5b60006103228882890161014c565b955050602086015167ffffffffffffffff811115610343576103426100fe565b5b61034f88828901610294565b945050604086015167ffffffffffffffff8111156103705761036f6100fe565b5b61037c88828901610294565b935050606061038d888289016102e3565b925050608061039e888289016102e3565b9150509295509295909350565b600081519050919050565b7f4e487b7100000000000000000000000000000000000000000000000000000000600052602260045260246000fd5b600060028204905060018216806103fd57607f821691505b6020821081036104105761040f6103b6565b5b50919050565b60008190508160005260206000209050919050565b60006020601f8301049050919050565b600082821b905092915050565b6000600883026104787fffffffffffffffffffffffffffffffffffffffffffffffffffffffffffffffff8261043b565b610482868361043b565b95508019841693508086168417925050509392505050565b6000819050919050565b60006104bf6104ba6104b5846102c2565b61049a565b6102c2565b9050919050565b6000819050919050565b6104d9836104a4565b6104ed6104e5826104c6565b848454610448565b825550505050565b600090565b6105026104f5565b61050d8184846104d0565b505050565b5b81811015610531576105266000826104fa565b600181019050610513565b5050565b601f8211156105765761054781610416565b6105508461042b565b8101602085101561055f578190505b61057361056b8561042b565b830182610512565b50505b505050565b600082821c905092915050565b60006105996000198460080261057b565b1980831691505092915050565b60006105b28383610588565b9150826002028217905092915050565b6105cb826103ab565b67ffffffffffffffff8111156105e4576105e361017c565b5b6105ee82546103e5565b6105f9828285610535565b600060209050601f83116001811461062c576000841561061a578287015190505b61062485826105a6565b86555061068c565b601f19841661063a86610416565b60005b828110156106625784890151825560018201915060208501945060208101905061063d565b8683101561067f578489015161067b601f891682610588565b8355505b6001600288020188555050505b505050505050565b7f4e487b7100000000000000000000000000000000000000000000000000000000600052601160045260246000fd5b60006106ce826102c2565b91506106d9836102c2565b92508282026106e7816102c2565b915082820484148315176106fe576106fd610694565b5b5092915050565b6000610710826102c2565b915061071b836102c2565b925082820190508082111561073357610732610694565b5b92915050565b7f4e487b7100000000000000000000000000000000000000000000000000000000600052602160045260246000fd5b61260b806107776000396000f3fe60806040526004361061011f5760003560e01c80636f9fb98a116100a05780638ece7b91116100645780638ece7b91146103a3578063b85dfb80146103cc578063c19d93fb14610409578063c4ae316814610434578063ca1d209d1461044b5761011f565b80636f9fb98a146102bc5780637284e416146102e75780637497211b146103125780637adba5271461033b5780638da5cb5b146103785761011f565b80633ccfd60b116100e75780633ccfd60b1461020d5780634019388314610224578063590e1ae31461024f5780635ad701c2146102665780635c975abb146102915761011f565b8063039af9eb1461012457806306fdde0314610163578063105505151461018e57806329dcb0cf146101b9578063389b7533146101e4575b600080fd5b34801561013057600080fd5b5061014b60048036038101906101469190611548565b610467565b60405161015a93929190611614565b60405180910390f35b34801561016f57600080fd5b50610178610529565b6040516101859190611652565b60405180910390f35b34801561019a57600080fd5b506101a36105b7565b6040516101b091906116eb565b60405180910390f35b3480156101c557600080fd5b506101ce610632565b6040516101db9190611706565b60405180910390f35b3480156101f057600080fd5b5061020b60048036038101906102069190611548565b610638565b005b34801561021957600080fd5b506102226107de565b005b34801561023057600080fd5b506102396109a0565b6040516102469190611706565b60405180910390f35b34801561025b57600080fd5b506102646109a6565b005b34801561027257600080fd5b5061027b610b3f565b604051610288919061188c565b60405180910390f35b34801561029d57600080fd5b506102a6610c44565b6040516102b391906118c9565b60405180910390f35b3480156102c857600080fd5b506102d1610c57565b6040516102de9190611706565b60405180910390f35b3480156102f357600080fd5b506102fc610c5f565b6040516103099190611652565b60405180910390f35b34801561031e57600080fd5b5061033960048036038101906103349190611548565b610ced565b005b34801561034757600080fd5b50610362600480360381019061035d9190611942565b610e93565b60405161036f91906118c9565b60405180910390f35b34801561038457600080fd5b5061038d610efe565b60405161039a9190611991565b60405180910390f35b3480156103af57600080fd5b506103ca60048036038101906103c59190611ae1565b610f24565b005b3480156103d857600080fd5b506103f360048036038101906103ee9190611b3d565b61106e565b6040516104009190611706565b60405180910390f35b34801561041557600080fd5b5061041e61108c565b60405161042b91906116eb565b60405180910390f35b34801561044057600080fd5b5061044961109f565b005b61046560048036038101906104609190611548565b61115b565b005b6005818154811061047757600080fd5b906000526020600020906003020160009150905080600001805461049a90611b99565b80601f01602080910402602001604051908101604052809291908181526020018280546104c690611b99565b80156105135780601f106104e857610100808354040283529160200191610513565b820191906000526020600020905b8154815290600101906020018083116104f657829003601f168201915b5050505050908060010154908060020154905083565b6000805461053690611b99565b80601f016020809104026020016040519081016040528092919081815260200182805461056290611b99565b80156105af5780601f10610584576101008083540402835291602001916105af565b820191906000526020600020905b81548152906001019060200180831161059257829003601f168201915b505050505081565b60008060028111156105cc576105cb611674565b5b600460159054906101000a900460ff1660028111156105ee576105ed611674565b5b1480156105fc575060035442115b1561061c57600254471015610612576002610615565b60015b905061062f565b600460159054906101000a900460ff1690505b90565b60035481565b600460009054906101000a900473ffffffffffffffffffffffffffffffffffffffff1673ffffffffffffffffffffffffffffffffffffffff163373ffffffffffffffffffffffffffffffffffffffff16146106c8576040517f08c379a00000000000000000000000000000000000000000000000000000000081526004016106bf90611c16565b60405180910390fd5b600060028111156106dc576106db611674565b5b600460159054906101000a900460ff1660028111156106fe576106fd611674565b5b1461073e576040517f08c379a000000000000000000000000000000000000000000000000000000000815260040161073590611c82565b60405180910390fd5b6000600281111561075257610751611674565b5b600460159054906101000a900460ff16600281111561077457610773611674565b5b146107b4576040517f08c379a00000000000000000000000000000000000000000000000000000000081526004016107ab90611cee565b60405180910390fd5b62015180816107c39190611d3d565b600360008282546107d49190611d7f565b9250508190555050565b600460009054906101000a900473ffffffffffffffffffffffffffffffffffffffff1673ffffffffffffffffffffffffffffffffffffffff163373ffffffffffffffffffffffffffffffffffffffff161461086e576040517f08c379a000000000000000000000000000000000000000000000000000000000815260040161086590611c16565b60405180910390fd5b6108766113da565b6001600281111561088a57610889611674565b5b600460159054906101000a900460ff1660028111156108ac576108ab611674565b5b146108ec576040517f08c379a00000000000000000000000000000000000000000000000000000000081526004016108e390611dff565b60405180910390fd5b600047905060008111610934576040517f08c379a000000000000000000000000000000000000000000000000000000000815260040161092b90611e6b565b60405180910390fd5b600460009054906101000a900473ffffffffffffffffffffffffffffffffffffffff1673ffffffffffffffffffffffffffffffffffffffff166108fc829081150290604051600060405180830381858888f1935050505015801561099c573d6000803e3d6000fd5b5050565b60025481565b6109ae6113da565b6002808111156109c1576109c0611674565b5b600460159054906101000a900460ff1660028111156109e3576109e2611674565b5b14610a23576040517f08c379a0000000000000000000000000000000000000000000000000000000008152600401610a1a90611ed7565b60405180910390fd5b6000600660003373ffffffffffffffffffffffffffffffffffffffff1673ffffffffffffffffffffffffffffffffffffffff16815260200190815260200160002060000154905060008111610aad576040517f08c379a0000000000000000000000000000000000000000000000000000000008152600401610aa490611f43565b60405180910390fd5b6000600660003373ffffffffffffffffffffffffffffffffffffffff1673ffffffffffffffffffffffffffffffffffffffff168152602001908152602001600020600001819055503373ffffffffffffffffffffffffffffffffffffffff166108fc829081150290604051600060405180830381858888f19350505050158015610b3b573d6000803e3d6000fd5b5050565b60606005805480602002602001604051908101604052809291908181526020016000905b82821015610c3b5783829060005260206000209060030201604051806060016040529081600082018054610b9690611b99565b80601f0160208091040260200160405190810160405280929190818152602001828054610bc290611b99565b8015610c0f5780601f10610be457610100808354040283529160200191610c0f565b820191906000526020600020905b815481529060010190602001808311610bf257829003601f168201915b505050505081526020016001820154815260200160028201548152505081526020019060010190610b63565b50505050905090565b600460149054906101000a900460ff1681565b600047905090565b60018054610c6c90611b99565b80601f0160208091040260200160405190810160405280929190818152602001828054610c9890611b99565b8015610ce55780601f10610cba57610100808354040283529160200191610ce5565b820191906000526020600020905b815481529060010190602001808311610cc857829003601f168201915b505050505081565b600460009054906101000a900473ffffffffffffffffffffffffffffffffffffffff1673ffffffffffffffffffffffffffffffffffffffff163373ffffffffffffffffffffffffffffffffffffffff1614610d7d576040517f08c379a0000000000000000000000000000000000000000000000000000000008152600401610d7490611c16565b60405180910390fd5b6005805490508110610dc4576040517f08c379a0000000000000000000000000000000000000000000000000000000008152600401610dbb90611faf565b60405180910390fd5b60056001600580549050610dd89190611fcf565b81548110610de957610de8612003565b5b906000526020600020906003020160058281548110610e0b57610e0a612003565b5b906000526020600020906003020160008201816000019081610e2d91906121f4565b5060018201548160010155600282015481600201559050506005805480610e5757610e566122dc565b5b600190038181906000526020600020906003020160008082016000610e7c91906114a1565b600182016000905560028201600090555050905550565b6000600660008473ffffffffffffffffffffffffffffffffffffffff1673ffffffffffffffffffffffffffffffffffffffff168152602001908152602001600020600101600083815260200190815260200160002060009054906101000a900460ff16905092915050565b600460009054906101000a900473ffffffffffffffffffffffffffffffffffffffff1681565b600460009054906101000a900473ffffffffffffffffffffffffffffffffffffffff1673ffffffffffffffffffffffffffffffffffffffff163373ffffffffffffffffffffffffffffffffffffffff1614610fb4576040517f08c379a0000000000000000000000000000000000000000000000000000000008152600401610fab90611c16565b60405180910390fd5b60008111610ff7576040517f08c379a0000000000000000000000000000000000000000000000000000000008152600401610fee90612357565b60405180910390fd5b600560405180606001604052808481526020018381526020016000815250908060018154018082558091505060019003906000526020600020906003020160009091909190915060008201518160000190816110539190612377565b50602082015181600101556040820151816002015550505050565b60066020528060005260406000206000915090508060000154905081565b600460159054906101000a900460ff1681565b600460009054906101000a900473ffffffffffffffffffffffffffffffffffffffff1673ffffffffffffffffffffffffffffffffffffffff163373ffffffffffffffffffffffffffffffffffffffff161461112f576040517f08c379a000000000000000000000000000000000000000000000000000000000815260040161112690611c16565b60405180910390fd5b600460149054906101000a900460ff1615600460146101000a81548160ff021916908315150217905550565b6000600281111561116f5761116e611674565b5b600460159054906101000a900460ff16600281111561119157611190611674565b5b146111d1576040517f08c379a00000000000000000000000000000000000000000000000000000000081526004016111c890611c82565b60405180910390fd5b600460149054906101000a900460ff1615611221576040517f08c379a000000000000000000000000000000000000000000000000000000000815260040161121890612495565b60405180910390fd5b6005805490508110611268576040517f08c379a000000000000000000000000000000000000000000000000000000000815260040161125f90612501565b60405180910390fd5b6005818154811061127c5761127b612003565b5b90600052602060002090600302016001015434146112cf576040517f08c379a00000000000000000000000000000000000000000000000000000000081526004016112c69061256d565b60405180910390fd5b600581815481106112e3576112e2612003565b5b906000526020600020906003020160020160008154809291906113059061258d565b919050555034600660003373ffffffffffffffffffffffffffffffffffffffff1673ffffffffffffffffffffffffffffffffffffffff168152602001908152602001600020600001600082825461135c9190611d7f565b925050819055506001600660003373ffffffffffffffffffffffffffffffffffffffff1673ffffffffffffffffffffffffffffffffffffffff168152602001908152602001600020600101600083815260200190815260200160002060006101000a81548160ff0219169083151502179055506113d76113da565b50565b600060028111156113ee576113ed611674565b5b600460159054906101000a900460ff1660028111156114105761140f611674565b5b0361149f5760035442106114605760025447101561142f576002611432565b60015b600460156101000a81548160ff0219169083600281111561145657611455611674565b5b021790555061149e565b600254471015611471576002611474565b60015b600460156101000a81548160ff0219169083600281111561149857611497611674565b5b02179055505b5b565b5080546114ad90611b99565b6000825580601f106114bf57506114de565b601f0160209004906000526020600020908101906114dd91906114e1565b5b50565b5b808211156114fa5760008160009055506001016114e2565b5090565b6000604051905090565b600080fd5b600080fd5b6000819050919050565b61152581611512565b811461153057600080fd5b50565b6000813590506115428161151c565b92915050565b60006020828403121561155e5761155d611508565b5b600061156c84828501611533565b91505092915050565b600081519050919050565b600082825260208201905092915050565b60005b838110156115af578082015181840152602081019050611594565b60008484015250505050565b6000601f19601f8301169050919050565b60006115d782611575565b6115e18185611580565b93506115f1818560208601611591565b6115fa816115bb565b840191505092915050565b61160e81611512565b82525050565b6000606082019050818103600083015261162e81866115cc565b905061163d6020830185611605565b61164a6040830184611605565b949350505050565b6000602082019050818103600083015261166c81846115cc565b905092915050565b7f4e487b7100000000000000000000000000000000000000000000000000000000600052602160045260246000fd5b600381106116b4576116b3611674565b5b50565b60008190506116c5826116a3565b919050565b60006116d5826116b7565b9050919050565b6116e5816116ca565b82525050565b600060208201905061170060008301846116dc565b92915050565b600060208201905061171b6000830184611605565b92915050565b600081519050919050565b600082825260208201905092915050565b6000819050602082019050919050565b600082825260208201905092915050565b600061176982611575565b611773818561174d565b9350611783818560208601611591565b61178c816115bb565b840191505092915050565b6117a081611512565b82525050565b600060608301600083015184820360008601526117c3828261175e565b91505060208301516117d86020860182611797565b5060408301516117eb6040860182611797565b508091505092915050565b600061180283836117a6565b905092915050565b6000602082019050919050565b600061182282611721565b61182c818561172c565b93508360208202850161183e8561173d565b8060005b8581101561187a578484038952815161185b85826117f6565b94506118668361180a565b925060208a01995050600181019050611842565b50829750879550505050505092915050565b600060208201905081810360008301526118a68184611817565b905092915050565b60008115159050919050565b6118c3816118ae565b82525050565b60006020820190506118de60008301846118ba565b92915050565b600073ffffffffffffffffffffffffffffffffffffffff82169050919050565b600061190f826118e4565b9050919050565b61191f81611904565b811461192a57600080fd5b50565b60008135905061193c81611916565b92915050565b6000806040838503121561195957611958611508565b5b60006119678582860161192d565b925050602061197885828601611533565b9150509250929050565b61198b81611904565b82525050565b60006020820190506119a66000830184611982565b92915050565b600080fd5b600080fd5b7f4e487b7100000000000000000000000000000000000000000000000000000000600052604160045260246000fd5b6119ee826115bb565b810181811067ffffffffffffffff82111715611a0d57611a0c6119b6565b5b80604052505050565b6000611a206114fe565b9050611a2c82826119e5565b919050565b600067ffffffffffffffff821115611a4c57611a4b6119b6565b5b611a55826115bb565b9050602081019050919050565b82818337600083830152505050565b6000611a84611a7f84611a31565b611a16565b905082815260208101848484011115611aa057611a9f6119b1565b5b611aab848285611a62565b509392505050565b600082601f830112611ac857611ac76119ac565b5b8135611ad8848260208601611a71565b91505092915050565b60008060408385031215611af857611af7611508565b5b600083013567ffffffffffffffff811115611b1657611b1561150d565b5b611b2285828601611ab3565b9250506020611b3385828601611533565b9150509250929050565b600060208284031215611b5357611b52611508565b5b6000611b618482850161192d565b91505092915050565b7f4e487b7100000000000000000000000000000000000000000000000000000000600052602260045260246000fd5b60006002820490506001821680611bb157607f821691505b602082108103611bc457611bc3611b6a565b5b50919050565b7f4e6f7420746865206f776e657200000000000000000000000000000000000000600082015250565b6000611c00600d83611580565b9150611c0b82611bca565b602082019050919050565b60006020820190508181036000830152611c2f81611bf3565b9050919050565b7f43616d706169676e206973206e6f74206f70656e000000000000000000000000600082015250565b6000611c6c601483611580565b9150611c7782611c36565b602082019050919050565b60006020820190508181036000830152611c9b81611c5f565b9050919050565b7f43616d706169676e206e6f74206163746976652e000000000000000000000000600082015250565b6000611cd8601483611580565b9150611ce382611ca2565b602082019050919050565b60006020820190508181036000830152611d0781611ccb565b9050919050565b7f4e487b7100000000000000000000000000000000000000000000000000000000600052601160045260246000fd5b6000611d4882611512565b9150611d5383611512565b9250828202611d6181611512565b91508282048414831517611d7857611d77611d0e565b5b5092915050565b6000611d8a82611512565b9150611d9583611512565b9250828201905080821115611dad57611dac611d0e565b5b92915050565b7f43616d706169676e206e6f74207375636365737366756c2e0000000000000000600082015250565b6000611de9601883611580565b9150611df482611db3565b602082019050919050565b60006020820190508181036000830152611e1881611ddc565b9050919050565b7f4e6f2062616c616e636520746f2077697468647261772e000000000000000000600082015250565b6000611e55601783611580565b9150611e6082611e1f565b602082019050919050565b60006020820190508181036000830152611e8481611e48565b9050919050565b7f526566756e6473206e6f7420617661696c61626c652e00000000000000000000600082015250565b6000611ec1601683611580565b9150611ecc82611e8b565b602082019050919050565b60006020820190508181036000830152611ef081611eb4565b9050919050565b7f4e6f2066756e647320746f20726566756e642e00000000000000000000000000600082015250565b6000611f2d601383611580565b9150611f3882611ef7565b602082019050919050565b60006020820190508181036000830152611f5c81611f20565b9050919050565b7f5469657220646f65736e2774206578697374732e000000000000000000000000600082015250565b6000611f99601483611580565b9150611fa482611f63565b602082019050919050565b60006020820190508181036000830152611fc881611f8c565b9050919050565b6000611fda82611512565b9150611fe583611512565b9250828203905081811115611ffd57611ffc611d0e565b5b92915050565b7f4e487b7100000000000000000000000000000000000000000000000000000000600052603260045260246000fd5b60008154905061204181611b99565b9050919050565b60008190508160005260206000209050919050565b60006020601f8301049050919050565b600082821b905092915050565b6000600883026120aa7fffffffffffffffffffffffffffffffffffffffffffffffffffffffffffffffff8261206d565b6120b4868361206d565b95508019841693508086168417925050509392505050565b6000819050919050565b60006120f16120ec6120e784611512565b6120cc565b611512565b9050919050565b6000819050919050565b61210b836120d6565b61211f612117826120f8565b84845461207a565b825550505050565b600090565b612134612127565b61213f818484612102565b505050565b5b818110156121635761215860008261212c565b600181019050612145565b5050565b601f8211156121a85761217981612048565b6121828461205d565b81016020851015612191578190505b6121a561219d8561205d565b830182612144565b50505b505050565b600082821c905092915050565b60006121cb600019846008026121ad565b1980831691505092915050565b60006121e483836121ba565b9150826002028217905092915050565b8181036122025750506122da565b61220b82612032565b67ffffffffffffffff811115612224576122236119b6565b5b61222e8254611b99565b612239828285612167565b6000601f8311600181146122685760008415612256578287015490505b61226085826121d8565b8655506122d3565b601f19841661227687612048565b965061228186612048565b60005b828110156122a957848901548255600182019150600185019450602081019050612284565b868310156122c657848901546122c2601f8916826121ba565b8355505b6001600288020188555050505b5050505050505b565b7f4e487b7100000000000000000000000000000000000000000000000000000000600052603160045260246000fd5b7f416d6f756e74206d7573742067726561746572207468616e20302e0000000000600082015250565b6000612341601b83611580565b915061234c8261230b565b602082019050919050565b6000602082019050818103600083015261237081612334565b9050919050565b61238082611575565b67ffffffffffffffff811115612399576123986119b6565b5b6123a38254611b99565b6123ae828285612167565b600060209050601f8311600181146123e157600084156123cf578287015190505b6123d985826121d8565b865550612441565b601f1984166123ef86612048565b60005b82811015612417578489015182556001820191506020850194506020810190506123f2565b868310156124345784890151612430601f8916826121ba565b8355505b6001600288020188555050505b505050505050565b7f43616d706169676e206973207061757365640000000000000000000000000000600082015250565b600061247f601283611580565b915061248a82612449565b602082019050919050565b600060208201905081810360008301526124ae81612472565b9050919050565b7f496e76616c696420546965720000000000000000000000000000000000000000600082015250565b60006124eb600c83611580565b91506124f6826124b5565b602082019050919050565b6000602082019050818103600083015261251a816124de565b9050919050565b7f496e636f727265637420616d6f756e7400000000000000000000000000000000600082015250565b6000612557601083611580565b915061256282612521565b602082019050919050565b600060208201905081810360008301526125868161254a565b9050919050565b600061259882611512565b91507fffffffffffffffffffffffffffffffffffffffffffffffffffffffffffffffff82036125ca576125c9611d0e565b5b60018201905091905056fea26469706673582212204a3e1a920fb93f6cab952d1533222521ed6a8f5f40596b7486b9408cc457faa164736f6c634300081c0033",
  "linkReferences": {},
  "deployedLinkReferences": {}
}